{
  "contractName": "DeviceStateManager",
  "abi": [
    {
      "constant": true,
      "inputs": [
        {
          "name": "",
          "type": "uint256"
        }
      ],
      "name": "deviceIndex",
      "outputs": [
        {
          "name": "",
          "type": "address"
        }
      ],
      "payable": false,
      "stateMutability": "view",
      "type": "function"
    },
    {
      "constant": true,
      "inputs": [],
      "name": "owner",
      "outputs": [
        {
          "name": "",
          "type": "address"
        }
      ],
      "payable": false,
      "stateMutability": "view",
      "type": "function"
    },
    {
      "constant": true,
      "inputs": [
        {
          "name": "",
          "type": "address"
        }
      ],
      "name": "devices",
      "outputs": [
        {
          "name": "status",
          "type": "bool"
        },
        {
          "name": "index",
          "type": "uint256"
        },
        {
          "name": "isRegulatable",
          "type": "bool"
        },
        {
          "name": "name",
          "type": "string"
        }
      ],
      "payable": false,
      "stateMutability": "view",
      "type": "function"
    },
    {
      "constant": false,
      "inputs": [
        {
          "name": "_newOwner",
          "type": "address"
        }
      ],
      "name": "transferOwnership",
      "outputs": [],
      "payable": false,
      "stateMutability": "nonpayable",
      "type": "function"
    },
    {
      "anonymous": false,
      "inputs": [
        {
          "indexed": true,
          "name": "_deviceAddress",
          "type": "address"
        },
        {
          "indexed": false,
          "name": "_index",
          "type": "uint256"
        },
        {
          "indexed": false,
          "name": "_status",
          "type": "bool"
        },
        {
          "indexed": false,
          "name": "_isRegulatable",
          "type": "bool"
        },
        {
          "indexed": false,
          "name": "_name",
          "type": "string"
        }
      ],
      "name": "LogNewDevice",
      "type": "event"
    },
    {
      "anonymous": false,
      "inputs": [
        {
          "indexed": true,
          "name": "_deviceAddress",
          "type": "address"
        },
        {
          "indexed": false,
          "name": "_index",
          "type": "uint256"
        },
        {
          "indexed": false,
          "name": "status",
          "type": "bool"
        }
      ],
      "name": "LogDeviceUpdate",
      "type": "event"
    },
    {
      "anonymous": false,
      "inputs": [
        {
          "indexed": true,
          "name": "_deviceAddress",
          "type": "address"
        },
        {
          "indexed": false,
          "name": "_index",
          "type": "uint256"
        }
      ],
      "name": "LogDeviceOn",
      "type": "event"
    },
    {
      "anonymous": false,
      "inputs": [
        {
          "indexed": true,
          "name": "_deviceAddress",
          "type": "address"
        },
        {
          "indexed": false,
          "name": "_index",
          "type": "uint256"
        }
      ],
      "name": "LogDeviceOff",
      "type": "event"
    },
    {
      "anonymous": false,
      "inputs": [
        {
          "indexed": true,
          "name": "_deviceAddress",
          "type": "address"
        },
        {
          "indexed": false,
          "name": "_index",
          "type": "uint256"
        }
      ],
      "name": "LogDeleteDevice",
      "type": "event"
    },
    {
      "anonymous": false,
      "inputs": [
        {
          "indexed": true,
          "name": "_deviceAddress",
          "type": "address"
        },
        {
          "indexed": false,
          "name": "_regulationValue",
          "type": "uint256"
        }
      ],
      "name": "DeviceRegulated",
      "type": "event"
    },
    {
      "anonymous": false,
      "inputs": [
        {
          "indexed": true,
          "name": "_previousOwner",
          "type": "address"
        },
        {
          "indexed": true,
          "name": "_newOwner",
          "type": "address"
        }
      ],
      "name": "OwnershipTransferred",
      "type": "event"
    },
    {
      "constant": true,
      "inputs": [
        {
          "name": "_deviceAddress",
          "type": "address"
        }
      ],
      "name": "isDevice",
      "outputs": [
        {
          "name": "_isIndeed",
          "type": "bool"
        }
      ],
      "payable": false,
      "stateMutability": "view",
      "type": "function"
    },
    {
      "constant": false,
      "inputs": [
        {
          "name": "_deviceAddress",
          "type": "address"
        },
        {
          "name": "_status",
          "type": "bool"
        },
        {
          "name": "_isRegulatable",
          "type": "bool"
        },
        {
          "name": "_name",
          "type": "string"
        }
      ],
      "name": "addDevice",
      "outputs": [
        {
          "name": "_index",
          "type": "uint256"
        }
      ],
      "payable": false,
      "stateMutability": "nonpayable",
      "type": "function"
    },
    {
      "constant": false,
      "inputs": [
        {
          "name": "_deviceAddress",
          "type": "address"
        }
      ],
      "name": "deleteDevice",
      "outputs": [
        {
          "name": "_index",
          "type": "uint256"
        }
      ],
      "payable": false,
      "stateMutability": "nonpayable",
      "type": "function"
    },
    {
      "constant": true,
      "inputs": [
        {
          "name": "_deviceAddress",
          "type": "address"
        }
      ],
      "name": "getDevice",
      "outputs": [
        {
          "name": "_index",
          "type": "uint256"
        },
        {
          "name": "_status",
          "type": "bool"
        },
        {
          "name": "_isRegulatable",
          "type": "bool"
        },
        {
          "name": "_name",
          "type": "string"
        }
      ],
      "payable": false,
      "stateMutability": "view",
      "type": "function"
    },
    {
      "constant": false,
      "inputs": [
        {
          "name": "_deviceAddress",
          "type": "address"
        }
      ],
      "name": "turnOnDevice",
      "outputs": [
        {
          "name": "_success",
          "type": "bool"
        }
      ],
      "payable": false,
      "stateMutability": "nonpayable",
      "type": "function"
    },
    {
      "constant": false,
      "inputs": [
        {
          "name": "_deviceAddress",
          "type": "address"
        }
      ],
      "name": "turnOffDevice",
      "outputs": [
        {
          "name": "_success",
          "type": "bool"
        }
      ],
      "payable": false,
      "stateMutability": "nonpayable",
      "type": "function"
    },
    {
      "constant": true,
      "inputs": [],
      "name": "getDeviceCount",
      "outputs": [
        {
          "name": "_count",
          "type": "uint256"
        }
      ],
      "payable": false,
      "stateMutability": "view",
      "type": "function"
    },
    {
      "constant": true,
      "inputs": [
        {
          "name": "_index",
          "type": "uint256"
        }
      ],
      "name": "getDeviceAtIndex",
      "outputs": [
        {
          "name": "_deviceAddress",
          "type": "address"
        }
      ],
      "payable": false,
      "stateMutability": "view",
      "type": "function"
    },
    {
      "constant": true,
      "inputs": [
        {
          "name": "_deviceAddress",
          "type": "address"
        }
      ],
      "name": "isDeviceRegulatable",
      "outputs": [
        {
          "name": "_isIndeed",
          "type": "bool"
        }
      ],
      "payable": false,
      "stateMutability": "view",
      "type": "function"
    },
    {
      "constant": false,
      "inputs": [
        {
          "name": "_deviceAddress",
          "type": "address"
        },
        {
          "name": "_regulationValue",
          "type": "uint256"
        }
      ],
      "name": "regulateDevice",
      "outputs": [
        {
          "name": "_success",
          "type": "bool"
        }
      ],
      "payable": false,
      "stateMutability": "nonpayable",
      "type": "function"
    }
  ],
  "bytecode": "0x6060604052336000806101000a81548173ffffffffffffffffffffffffffffffffffffffff021916908373ffffffffffffffffffffffffffffffffffffffff160217905550611841806100536000396000f3006060604052600436106100cf576000357c0100000000000000000000000000000000000000000000000000000000900463ffffffff168062d55318146100d45780630a0fec59146101a35780632d6f7917146101f457806337a0701a1461024557806337e37c631461026e5780635e64a619146102bf5780636dc7a35f1461032257806375d29c5a146103735780638748e711146103c05780638da5cb5b146104665780639629c55b146104bb578063e7b4cac614610515578063f2fde38b146105e4578063f3cb9dba1461061d575b600080fd5b34156100df57600080fd5b61010b600480803573ffffffffffffffffffffffffffffffffffffffff16906020019091905050610680565b60405180858152602001841515151581526020018315151515815260200180602001828103825283818151815260200191508051906020019080838360005b8381101561016557808201518184015260208101905061014a565b50505050905090810190601f1680156101925780820380516001836020036101000a031916815260200191505b509550505050505060405180910390f35b34156101ae57600080fd5b6101da600480803573ffffffffffffffffffffffffffffffffffffffff16906020019091905050610871565b604051808215151515815260200191505060405180910390f35b34156101ff57600080fd5b61022b600480803573ffffffffffffffffffffffffffffffffffffffff1690602001909190505061099d565b604051808215151515815260200191505060405180910390f35b341561025057600080fd5b610258610b01565b6040518082815260200191505060405180910390f35b341561027957600080fd5b6102a5600480803573ffffffffffffffffffffffffffffffffffffffff16906020019091905050610b0e565b604051808215151515815260200191505060405180910390f35b34156102ca57600080fd5b6102e06004808035906020019091905050610c73565b604051808273ffffffffffffffffffffffffffffffffffffffff1673ffffffffffffffffffffffffffffffffffffffff16815260200191505060405180910390f35b341561032d57600080fd5b610359600480803573ffffffffffffffffffffffffffffffffffffffff16906020019091905050610cb2565b604051808215151515815260200191505060405180910390f35b341561037e57600080fd5b6103aa600480803573ffffffffffffffffffffffffffffffffffffffff16906020019091905050610d7d565b6040518082815260200191505060405180910390f35b34156103cb57600080fd5b610450600480803573ffffffffffffffffffffffffffffffffffffffff169060200190919080351515906020019091908035151590602001909190803590602001908201803590602001908080601f01602080910402602001604051908101604052809392919081815260200183838082843782019150505050505091905050611032565b6040518082815260200191505060405180910390f35b341561047157600080fd5b610479611383565b604051808273ffffffffffffffffffffffffffffffffffffffff1673ffffffffffffffffffffffffffffffffffffffff16815260200191505060405180910390f35b34156104c657600080fd5b6104fb600480803573ffffffffffffffffffffffffffffffffffffffff169060200190919080359060200190919050506113a8565b604051808215151515815260200191505060405180910390f35b341561052057600080fd5b61054c600480803573ffffffffffffffffffffffffffffffffffffffff16906020019091905050611489565b60405180851515151581526020018481526020018315151515815260200180602001828103825283818151815260200191508051906020019080838360005b838110156105a657808201518184015260208101905061058b565b50505050905090810190601f1680156105d35780820380516001836020036101000a031916815260200191505b509550505050505060405180910390f35b34156105ef57600080fd5b61061b600480803573ffffffffffffffffffffffffffffffffffffffff1690602001909190505061156b565b005b341561062857600080fd5b61063e60048080359060200190919050506116c0565b604051808273ffffffffffffffffffffffffffffffffffffffff1673ffffffffffffffffffffffffffffffffffffffff16815260200191505060405180910390f35b600080600061068d611704565b61069685610cb2565b15156106a157600080fd5b600160008673ffffffffffffffffffffffffffffffffffffffff1673ffffffffffffffffffffffffffffffffffffffff16815260200190815260200160002060010154600160008773ffffffffffffffffffffffffffffffffffffffff1673ffffffffffffffffffffffffffffffffffffffff16815260200190815260200160002060000160009054906101000a900460ff16600160008873ffffffffffffffffffffffffffffffffffffffff1673ffffffffffffffffffffffffffffffffffffffff16815260200190815260200160002060020160009054906101000a900460ff16600160008973ffffffffffffffffffffffffffffffffffffffff1673ffffffffffffffffffffffffffffffffffffffff168152602001908152602001600020600301808054600181600116156101000203166002900480601f01602080910402602001604051908101604052809291908181526020018280546001816001161561010002031660029004801561085b5780601f106108305761010080835404028352916020019161085b565b820191906000526020600020905b81548152906001019060200180831161083e57829003601f168201915b5050505050905093509350935093509193509193565b600061087c82610cb2565b151561088b5760009050610998565b8173ffffffffffffffffffffffffffffffffffffffff166002600160008573ffffffffffffffffffffffffffffffffffffffff1673ffffffffffffffffffffffffffffffffffffffff168152602001908152602001600020600101548154811015156108f357fe5b906000526020600020900160009054906101000a900473ffffffffffffffffffffffffffffffffffffffff1673ffffffffffffffffffffffffffffffffffffffff16148015610995575060011515600160008473ffffffffffffffffffffffffffffffffffffffff1673ffffffffffffffffffffffffffffffffffffffff16815260200190815260200160002060020160009054906101000a900460ff161515145b90505b919050565b60008060009054906101000a900473ffffffffffffffffffffffffffffffffffffffff1673ffffffffffffffffffffffffffffffffffffffff163373ffffffffffffffffffffffffffffffffffffffff161415156109fa57600080fd5b610a0382610cb2565b1515610a0e57600080fd5b60018060008473ffffffffffffffffffffffffffffffffffffffff1673ffffffffffffffffffffffffffffffffffffffff16815260200190815260200160002060000160006101000a81548160ff0219169083151502179055508173ffffffffffffffffffffffffffffffffffffffff167f45a2bdc195519752feac20d3e4012d6a697e96f66d93e914150af00c0287ef62600160008573ffffffffffffffffffffffffffffffffffffffff1673ffffffffffffffffffffffffffffffffffffffff168152602001908152602001600020600101546040518082815260200191505060405180910390a260019050919050565b6000600280549050905090565b60008060009054906101000a900473ffffffffffffffffffffffffffffffffffffffff1673ffffffffffffffffffffffffffffffffffffffff163373ffffffffffffffffffffffffffffffffffffffff16141515610b6b57600080fd5b610b7482610cb2565b1515610b7f57600080fd5b6000600160008473ffffffffffffffffffffffffffffffffffffffff1673ffffffffffffffffffffffffffffffffffffffff16815260200190815260200160002060000160006101000a81548160ff0219169083151502179055508173ffffffffffffffffffffffffffffffffffffffff167f02a8dfc6721f79552a7e09b2840dd3e139853f19129a78783c81063c2394ef5c600160008573ffffffffffffffffffffffffffffffffffffffff1673ffffffffffffffffffffffffffffffffffffffff168152602001908152602001600020600101546040518082815260200191505060405180910390a260019050919050565b600281815481101515610c8257fe5b90600052602060002090016000915054906101000a900473ffffffffffffffffffffffffffffffffffffffff1681565b6000806002805490501415610cca5760009050610d78565b8173ffffffffffffffffffffffffffffffffffffffff166002600160008573ffffffffffffffffffffffffffffffffffffffff1673ffffffffffffffffffffffffffffffffffffffff16815260200190815260200160002060010154815481101515610d3257fe5b906000526020600020900160009054906101000a900473ffffffffffffffffffffffffffffffffffffffff1673ffffffffffffffffffffffffffffffffffffffff161490505b919050565b60008060008060009054906101000a900473ffffffffffffffffffffffffffffffffffffffff1673ffffffffffffffffffffffffffffffffffffffff163373ffffffffffffffffffffffffffffffffffffffff16141515610ddd57600080fd5b610de684610cb2565b1515610df157600080fd5b600160008573ffffffffffffffffffffffffffffffffffffffff1673ffffffffffffffffffffffffffffffffffffffff1681526020019081526020016000206001015491506002600160028054905003815481101515610e4d57fe5b906000526020600020900160009054906101000a900473ffffffffffffffffffffffffffffffffffffffff16905080600283815481101515610e8b57fe5b906000526020600020900160006101000a81548173ffffffffffffffffffffffffffffffffffffffff021916908373ffffffffffffffffffffffffffffffffffffffff16021790555081600160008373ffffffffffffffffffffffffffffffffffffffff1673ffffffffffffffffffffffffffffffffffffffff168152602001908152602001600020600101819055506002805480919060019003610f309190611718565b508373ffffffffffffffffffffffffffffffffffffffff167faff514f0cea140f8ef4ea2e767bf9fcbf3406fdeb18d2977301cfa3afce954c6836040518082815260200191505060405180910390a28073ffffffffffffffffffffffffffffffffffffffff167f3261076394605e4137bae692a7cccd256e934a142b8ed2b196e4c2e75738c70783600160008573ffffffffffffffffffffffffffffffffffffffff1673ffffffffffffffffffffffffffffffffffffffff16815260200190815260200160002060000160009054906101000a900460ff1660405180838152602001821515151581526020019250505060405180910390a28192505050919050565b60008060009054906101000a900473ffffffffffffffffffffffffffffffffffffffff1673ffffffffffffffffffffffffffffffffffffffff163373ffffffffffffffffffffffffffffffffffffffff1614151561108f57600080fd5b61109885610cb2565b1515156110a457600080fd5b6000600160008773ffffffffffffffffffffffffffffffffffffffff1673ffffffffffffffffffffffffffffffffffffffff16815260200190815260200160002060000160006101000a81548160ff0219169083151502179055506001600280548060010182816111159190611744565b9160005260206000209001600088909190916101000a81548173ffffffffffffffffffffffffffffffffffffffff021916908373ffffffffffffffffffffffffffffffffffffffff16021790555003600160008773ffffffffffffffffffffffffffffffffffffffff1673ffffffffffffffffffffffffffffffffffffffff1681526020019081526020016000206001018190555081600160008773ffffffffffffffffffffffffffffffffffffffff1673ffffffffffffffffffffffffffffffffffffffff1681526020019081526020016000206003019080519060200190611200929190611770565b5082600160008773ffffffffffffffffffffffffffffffffffffffff1673ffffffffffffffffffffffffffffffffffffffff16815260200190815260200160002060020160006101000a81548160ff0219169083151502179055508473ffffffffffffffffffffffffffffffffffffffff167ffc8c49c2591e8da0002f4dd5cbc8dfce2bc831b9f872d7e9ac40596ffa3ce59a600160008873ffffffffffffffffffffffffffffffffffffffff1673ffffffffffffffffffffffffffffffffffffffff1681526020019081526020016000206001015486868660405180858152602001841515151581526020018315151515815260200180602001828103825283818151815260200191508051906020019080838360005b83811015611333578082015181840152602081019050611318565b50505050905090810190601f1680156113605780820380516001836020036101000a031916815260200191505b509550505050505060405180910390a26001600280549050039050949350505050565b6000809054906101000a900473ffffffffffffffffffffffffffffffffffffffff1681565b60008060009054906101000a900473ffffffffffffffffffffffffffffffffffffffff1673ffffffffffffffffffffffffffffffffffffffff163373ffffffffffffffffffffffffffffffffffffffff1614151561140557600080fd5b61140e83610871565b801561142657506000821180156114255750600b82105b5b151561143157600080fd5b8273ffffffffffffffffffffffffffffffffffffffff167f02c16fc0786a50ce1107eabf54be90d07d76fdf1f1e782ea6fb5083fe7bed0ba836040518082815260200191505060405180910390a26001905092915050565b60016020528060005260406000206000915090508060000160009054906101000a900460ff16908060010154908060020160009054906101000a900460ff1690806003018054600181600116156101000203166002900480601f0160208091040260200160405190810160405280929190818152602001828054600181600116156101000203166002900480156115615780601f1061153657610100808354040283529160200191611561565b820191906000526020600020905b81548152906001019060200180831161154457829003601f168201915b5050505050905084565b6000809054906101000a900473ffffffffffffffffffffffffffffffffffffffff1673ffffffffffffffffffffffffffffffffffffffff163373ffffffffffffffffffffffffffffffffffffffff161415156115c657600080fd5b600073ffffffffffffffffffffffffffffffffffffffff168173ffffffffffffffffffffffffffffffffffffffff161415151561160257600080fd5b8073ffffffffffffffffffffffffffffffffffffffff166000809054906101000a900473ffffffffffffffffffffffffffffffffffffffff1673ffffffffffffffffffffffffffffffffffffffff167f8be0079c531659141344cd1fd0a4f28419497f9722a3daafe3b4186f6b6457e060405160405180910390a3806000806101000a81548173ffffffffffffffffffffffffffffffffffffffff021916908373ffffffffffffffffffffffffffffffffffffffff16021790555050565b60006002828154811015156116d157fe5b906000526020600020900160009054906101000a900473ffffffffffffffffffffffffffffffffffffffff169050919050565b602060405190810160405280600081525090565b81548183558181151161173f5781836000526020600020918201910161173e91906117f0565b5b505050565b81548183558181151161176b5781836000526020600020918201910161176a91906117f0565b5b505050565b828054600181600116156101000203166002900490600052602060002090601f016020900481019282601f106117b157805160ff19168380011785556117df565b828001600101855582156117df579182015b828111156117de5782518255916020019190600101906117c3565b5b5090506117ec91906117f0565b5090565b61181291905b8082111561180e5760008160009055506001016117f6565b5090565b905600a165627a7a72305820c658393c86f72fe0d0dbf392e0a5c02f203e2c5ea33fb611da7046c55aa933570029",
  "source": "pragma solidity ^0.4.21;\n\nimport './Ownable.sol';\n\n/**\n * @title DeviceStateManager\n * @dev Manages devices connected to home network\n */\ncontract DeviceStateManager is Ownable {\n\n  struct Device {\n    bool status;\n    uint index;\n    bool isRegulatable;\n    string name;\n  }\n\n  mapping(address => Device) public devices;\n  address[] public deviceIndex;\n\n  event LogNewDevice(address indexed _deviceAddress,\n                     uint _index, bool _status,\n                     bool _isRegulatable,string _name);\n  event LogDeviceUpdate(address indexed _deviceAddress,\n                        uint _index, bool status);\n  event LogDeviceOn(address indexed _deviceAddress, uint _index);\n  event LogDeviceOff(address indexed _deviceAddress, uint _index);\n  event LogDeleteDevice(address indexed _deviceAddress, uint _index);\n  event DeviceRegulated(address indexed _deviceAddress,uint _regulationValue);\n\n  /**\n   * @dev Checks if device is part of home network\n   */\n  function isDevice(address _deviceAddress)\n  public\n  constant\n  returns(bool _isIndeed)\n  {\n    if(deviceIndex.length == 0) return false;\n    return (deviceIndex[devices[_deviceAddress].index] == _deviceAddress);\n  }\n\n  /**\n   * @dev Adds device to home network\n   */\n  function addDevice(address _deviceAddress, bool _status,\n                     bool _isRegulatable, string _name)\n  public\n  onlyOwner\n  returns(uint _index)\n  {\n    require(!isDevice(_deviceAddress));\n    devices[_deviceAddress].status = false;\n    devices[_deviceAddress].index = deviceIndex.push(_deviceAddress) - 1;\n    devices[_deviceAddress].name = _name;\n    devices[_deviceAddress].isRegulatable = _isRegulatable;\n    emit LogNewDevice(_deviceAddress, devices[_deviceAddress].index,\n                      _status ,_isRegulatable,_name);\n    return deviceIndex.length - 1;\n  }\n\n  /**\n   * @dev Removes device from the home network\n   */\n  function deleteDevice(address _deviceAddress)\n  public\n  onlyOwner\n  returns(uint _index)\n  {\n    require(isDevice(_deviceAddress));\n    uint rowToDelete = devices[_deviceAddress].index;\n    address keyToMove = deviceIndex[deviceIndex.length - 1];\n    deviceIndex[rowToDelete] = keyToMove;\n    devices[keyToMove].index = rowToDelete;\n    deviceIndex.length--;\n    emit LogDeleteDevice(\n        _deviceAddress,\n        rowToDelete);\n    emit LogDeviceUpdate(\n        keyToMove,\n        rowToDelete,\n        devices[keyToMove].status);\n    return rowToDelete;\n  }\n\n  /**\n   * @dev Gets device info provied the device address\n   */\n  function getDevice(address _deviceAddress)\n  public\n  constant\n  returns(uint _index, bool _status,bool _isRegulatable,string _name)\n  {\n    require(isDevice(_deviceAddress));\n    return(\n      devices[_deviceAddress].index,\n      devices[_deviceAddress].status,\n      devices[_deviceAddress].isRegulatable,\n      devices[_deviceAddress].name);\n\n  }\n\n  /**\n   * @dev Turn on device\n   */\n  function turnOnDevice(address _deviceAddress)\n  public\n  onlyOwner\n  returns(bool _success)\n  {\n    require(isDevice(_deviceAddress));\n    devices[_deviceAddress].status = true;\n    emit LogDeviceOn(\n      _deviceAddress,\n      devices[_deviceAddress].index);\n    return true;\n  }\n\n  /**\n   * @dev Turn off device\n   */\n  function turnOffDevice(address _deviceAddress)\n  public\n  onlyOwner\n  returns(bool _success)\n  {\n    require(isDevice(_deviceAddress));\n    devices[_deviceAddress].status = false;\n    emit LogDeviceOff(\n      _deviceAddress,\n      devices[_deviceAddress].index);\n    return true;\n  }\n\n  /**\n   * @dev Get count of devices connected to home network\n   */\n  function getDeviceCount()\n  public\n  constant\n  returns(uint _count)\n  {\n    return deviceIndex.length;\n  }\n  \n  /**\n   * @dev Get device information provided the device index\n   */\n  function getDeviceAtIndex(uint _index)\n  public\n  constant\n  returns(address _deviceAddress)\n  {\n    return deviceIndex[_index];\n  }\n\n  /**\n   * @dev Checks if device is regulatbable\n   */\n  function isDeviceRegulatable(address _deviceAddress)\n  public\n  constant\n  returns(bool _isIndeed)\n  {\n    if(!isDevice(_deviceAddress)) return false;\n    return ((deviceIndex[devices[_deviceAddress].index] == _deviceAddress)&&\n            (devices[_deviceAddress].isRegulatable == true ));\n  }\n\n  /**\n   * @dev Regulate device\n   */\n  function regulateDevice(address _deviceAddress,uint _regulationValue)\n  public\n  onlyOwner\n  returns(bool _success)\n  {\n    require(isDeviceRegulatable(_deviceAddress) &&\n           (_regulationValue>0&&_regulationValue<11));\n    emit DeviceRegulated(\n      _deviceAddress,\n      _regulationValue);\n    return true;\n  }\n\n}\n",
  "sourcePath": "/media/ankit/Pandora's Box/torque/public-contracts/contracts/DeviceStateManager.sol",
  "compiler": {
    "name": "solc",
    "version": "0.4.21+commit.dfe3193c.Emscripten.clang"
  },
  "schemaVersion": "2.0.0",
  "updatedAt": "2018-04-19T14:20:39.333Z"
}