{
  "contractName": "HomeMember",
  "abi": [
    {
      "constant": true,
      "inputs": [
        {
          "name": "",
          "type": "address"
        }
      ],
      "name": "members",
      "outputs": [
        {
          "name": "name",
          "type": "string"
        },
        {
          "name": "index",
          "type": "uint256"
        }
      ],
      "payable": false,
      "stateMutability": "view",
      "type": "function"
    },
    {
      "constant": true,
      "inputs": [],
      "name": "owner",
      "outputs": [
        {
          "name": "",
          "type": "address"
        }
      ],
      "payable": false,
      "stateMutability": "view",
      "type": "function"
    },
    {
      "constant": true,
      "inputs": [
        {
          "name": "",
          "type": "uint256"
        }
      ],
      "name": "memberIndex",
      "outputs": [
        {
          "name": "",
          "type": "address"
        }
      ],
      "payable": false,
      "stateMutability": "view",
      "type": "function"
    },
    {
      "constant": false,
      "inputs": [
        {
          "name": "_newOwner",
          "type": "address"
        }
      ],
      "name": "transferOwnership",
      "outputs": [],
      "payable": false,
      "stateMutability": "nonpayable",
      "type": "function"
    },
    {
      "anonymous": false,
      "inputs": [
        {
          "indexed": true,
          "name": "_memberAddress",
          "type": "address"
        },
        {
          "indexed": false,
          "name": "_index",
          "type": "uint256"
        },
        {
          "indexed": false,
          "name": "_name",
          "type": "string"
        }
      ],
      "name": "LogNewMember",
      "type": "event"
    },
    {
      "anonymous": false,
      "inputs": [
        {
          "indexed": true,
          "name": "_memberAddress",
          "type": "address"
        },
        {
          "indexed": false,
          "name": "_index",
          "type": "uint256"
        },
        {
          "indexed": false,
          "name": "_name",
          "type": "string"
        }
      ],
      "name": "LogMemberUpdate",
      "type": "event"
    },
    {
      "anonymous": false,
      "inputs": [
        {
          "indexed": true,
          "name": "_memberAddress",
          "type": "address"
        },
        {
          "indexed": false,
          "name": "_index",
          "type": "uint256"
        }
      ],
      "name": "LogDeleteMember",
      "type": "event"
    },
    {
      "anonymous": false,
      "inputs": [
        {
          "indexed": true,
          "name": "_previousOwner",
          "type": "address"
        },
        {
          "indexed": true,
          "name": "_newOwner",
          "type": "address"
        }
      ],
      "name": "OwnershipTransferred",
      "type": "event"
    },
    {
      "constant": true,
      "inputs": [
        {
          "name": "_memberAddress",
          "type": "address"
        }
      ],
      "name": "isMember",
      "outputs": [
        {
          "name": "_isIndeed",
          "type": "bool"
        }
      ],
      "payable": false,
      "stateMutability": "view",
      "type": "function"
    },
    {
      "constant": false,
      "inputs": [
        {
          "name": "_memberAddress",
          "type": "address"
        },
        {
          "name": "_name",
          "type": "string"
        }
      ],
      "name": "addMember",
      "outputs": [
        {
          "name": "_index",
          "type": "uint256"
        }
      ],
      "payable": false,
      "stateMutability": "nonpayable",
      "type": "function"
    },
    {
      "constant": false,
      "inputs": [
        {
          "name": "_memberAddress",
          "type": "address"
        }
      ],
      "name": "deleteMember",
      "outputs": [
        {
          "name": "_index",
          "type": "uint256"
        }
      ],
      "payable": false,
      "stateMutability": "nonpayable",
      "type": "function"
    },
    {
      "constant": true,
      "inputs": [
        {
          "name": "_memberAddress",
          "type": "address"
        }
      ],
      "name": "getMember",
      "outputs": [
        {
          "name": "_index",
          "type": "uint256"
        },
        {
          "name": "_name",
          "type": "string"
        }
      ],
      "payable": false,
      "stateMutability": "view",
      "type": "function"
    },
    {
      "constant": true,
      "inputs": [],
      "name": "getMemberCount",
      "outputs": [
        {
          "name": "_count",
          "type": "uint256"
        }
      ],
      "payable": false,
      "stateMutability": "view",
      "type": "function"
    },
    {
      "constant": true,
      "inputs": [
        {
          "name": "_index",
          "type": "uint256"
        }
      ],
      "name": "getMemberAtIndex",
      "outputs": [
        {
          "name": "_memberAddress",
          "type": "address"
        }
      ],
      "payable": false,
      "stateMutability": "view",
      "type": "function"
    }
  ],
  "bytecode": "0x6060604052336000806101000a81548173ffffffffffffffffffffffffffffffffffffffff021916908373ffffffffffffffffffffffffffffffffffffffff160217905550611083806100536000396000f3006060604052600436106100a4576000357c0100000000000000000000000000000000000000000000000000000000900463ffffffff16806308ae4b0c146100a957806311ffb1d4146101625780632ada2596146101af5780638da5cb5b14610268578063997072f7146102bd578063a230c524146102e6578063c127c24714610337578063f12b3f02146103c7578063f2fde38b1461042a578063f8024d1014610463575b600080fd5b34156100b457600080fd5b6100e0600480803573ffffffffffffffffffffffffffffffffffffffff169060200190919050506104c6565b6040518080602001838152602001828103825284818151815260200191508051906020019080838360005b8381101561012657808201518184015260208101905061010b565b50505050905090810190601f1680156101535780820380516001836020036101000a031916815260200191505b50935050505060405180910390f35b341561016d57600080fd5b610199600480803573ffffffffffffffffffffffffffffffffffffffff16906020019091905050610582565b6040518082815260200191505060405180910390f35b34156101ba57600080fd5b6101e6600480803573ffffffffffffffffffffffffffffffffffffffff169060200190919050506108a7565b6040518083815260200180602001828103825283818151815260200191508051906020019080838360005b8381101561022c578082015181840152602081019050610211565b50505050905090810190601f1680156102595780820380516001836020036101000a031916815260200191505b50935050505060405180910390f35b341561027357600080fd5b61027b6109ef565b604051808273ffffffffffffffffffffffffffffffffffffffff1673ffffffffffffffffffffffffffffffffffffffff16815260200191505060405180910390f35b34156102c857600080fd5b6102d0610a14565b6040518082815260200191505060405180910390f35b34156102f157600080fd5b61031d600480803573ffffffffffffffffffffffffffffffffffffffff16906020019091905050610a21565b604051808215151515815260200191505060405180910390f35b341561034257600080fd5b6103b1600480803573ffffffffffffffffffffffffffffffffffffffff1690602001909190803590602001908201803590602001908080601f01602080910402602001604051908101604052809392919081815260200183838082843782019150505050505091905050610aec565b6040518082815260200191505060405180910390f35b34156103d257600080fd5b6103e86004808035906020019091905050610d6e565b604051808273ffffffffffffffffffffffffffffffffffffffff1673ffffffffffffffffffffffffffffffffffffffff16815260200191505060405180910390f35b341561043557600080fd5b610461600480803573ffffffffffffffffffffffffffffffffffffffff16906020019091905050610dad565b005b341561046e57600080fd5b6104846004808035906020019091905050610f02565b604051808273ffffffffffffffffffffffffffffffffffffffff1673ffffffffffffffffffffffffffffffffffffffff16815260200191505060405180910390f35b6001602052806000526040600020600091509050806000018054600181600116156101000203166002900480601f0160208091040260200160405190810160405280929190818152602001828054600181600116156101000203166002900480156105725780601f1061054757610100808354040283529160200191610572565b820191906000526020600020905b81548152906001019060200180831161055557829003601f168201915b5050505050908060010154905082565b60008060008060009054906101000a900473ffffffffffffffffffffffffffffffffffffffff1673ffffffffffffffffffffffffffffffffffffffff163373ffffffffffffffffffffffffffffffffffffffff161415156105e257600080fd5b6105eb84610a21565b15156105f657600080fd5b600160008573ffffffffffffffffffffffffffffffffffffffff1673ffffffffffffffffffffffffffffffffffffffff168152602001908152602001600020600101549150600260016002805490500381548110151561065257fe5b906000526020600020900160009054906101000a900473ffffffffffffffffffffffffffffffffffffffff1690508060028381548110151561069057fe5b906000526020600020900160006101000a81548173ffffffffffffffffffffffffffffffffffffffff021916908373ffffffffffffffffffffffffffffffffffffffff16021790555081600160008373ffffffffffffffffffffffffffffffffffffffff1673ffffffffffffffffffffffffffffffffffffffff1681526020019081526020016000206001018190555060028054809190600190036107359190610f46565b508373ffffffffffffffffffffffffffffffffffffffff167fb2ad3efa15f4b159122a4a6823d1e096086c26df936f43abe90ea7791ed3dcba836040518082815260200191505060405180910390a28073ffffffffffffffffffffffffffffffffffffffff167fc0093834387f7f82fac0586665a114188828066af835596b00cdce3a9fdb5cb383600160008573ffffffffffffffffffffffffffffffffffffffff1673ffffffffffffffffffffffffffffffffffffffff168152602001908152602001600020600001604051808381526020018060200182810382528381815460018160011615610100020316600290048152602001915080546001816001161561010002031660029004801561088e5780601f106108635761010080835404028352916020019161088e565b820191906000526020600020905b81548152906001019060200180831161087157829003601f168201915b5050935050505060405180910390a28192505050919050565b60006108b1610f72565b6108ba83610a21565b15156108c557600080fd5b600160008473ffffffffffffffffffffffffffffffffffffffff1673ffffffffffffffffffffffffffffffffffffffff16815260200190815260200160002060010154600160008573ffffffffffffffffffffffffffffffffffffffff1673ffffffffffffffffffffffffffffffffffffffff168152602001908152602001600020600001808054600181600116156101000203166002900480601f0160208091040260200160405190810160405280929190818152602001828054600181600116156101000203166002900480156109df5780601f106109b4576101008083540402835291602001916109df565b820191906000526020600020905b8154815290600101906020018083116109c257829003601f168201915b5050505050905091509150915091565b6000809054906101000a900473ffffffffffffffffffffffffffffffffffffffff1681565b6000600280549050905090565b6000806002805490501415610a395760009050610ae7565b8173ffffffffffffffffffffffffffffffffffffffff166002600160008573ffffffffffffffffffffffffffffffffffffffff1673ffffffffffffffffffffffffffffffffffffffff16815260200190815260200160002060010154815481101515610aa157fe5b906000526020600020900160009054906101000a900473ffffffffffffffffffffffffffffffffffffffff1673ffffffffffffffffffffffffffffffffffffffff161490505b919050565b60008060009054906101000a900473ffffffffffffffffffffffffffffffffffffffff1673ffffffffffffffffffffffffffffffffffffffff163373ffffffffffffffffffffffffffffffffffffffff16141515610b4957600080fd5b610b5283610a21565b151515610b5e57600080fd5b600160028054806001018281610b749190610f86565b9160005260206000209001600086909190916101000a81548173ffffffffffffffffffffffffffffffffffffffff021916908373ffffffffffffffffffffffffffffffffffffffff16021790555003600160008573ffffffffffffffffffffffffffffffffffffffff1673ffffffffffffffffffffffffffffffffffffffff1681526020019081526020016000206001018190555081600160008573ffffffffffffffffffffffffffffffffffffffff1673ffffffffffffffffffffffffffffffffffffffff1681526020019081526020016000206000019080519060200190610c5f929190610fb2565b508273ffffffffffffffffffffffffffffffffffffffff167f8d325f0c8123bd060517f15bc9046527f3af48225643d222e910f5009d271dae600160008673ffffffffffffffffffffffffffffffffffffffff1673ffffffffffffffffffffffffffffffffffffffff16815260200190815260200160002060010154846040518083815260200180602001828103825283818151815260200191508051906020019080838360005b83811015610d22578082015181840152602081019050610d07565b50505050905090810190601f168015610d4f5780820380516001836020036101000a031916815260200191505b50935050505060405180910390a2600160028054905003905092915050565b600281815481101515610d7d57fe5b90600052602060002090016000915054906101000a900473ffffffffffffffffffffffffffffffffffffffff1681565b6000809054906101000a900473ffffffffffffffffffffffffffffffffffffffff1673ffffffffffffffffffffffffffffffffffffffff163373ffffffffffffffffffffffffffffffffffffffff16141515610e0857600080fd5b600073ffffffffffffffffffffffffffffffffffffffff168173ffffffffffffffffffffffffffffffffffffffff1614151515610e4457600080fd5b8073ffffffffffffffffffffffffffffffffffffffff166000809054906101000a900473ffffffffffffffffffffffffffffffffffffffff1673ffffffffffffffffffffffffffffffffffffffff167f8be0079c531659141344cd1fd0a4f28419497f9722a3daafe3b4186f6b6457e060405160405180910390a3806000806101000a81548173ffffffffffffffffffffffffffffffffffffffff021916908373ffffffffffffffffffffffffffffffffffffffff16021790555050565b6000600282815481101515610f1357fe5b906000526020600020900160009054906101000a900473ffffffffffffffffffffffffffffffffffffffff169050919050565b815481835581811511610f6d57818360005260206000209182019101610f6c9190611032565b5b505050565b602060405190810160405280600081525090565b815481835581811511610fad57818360005260206000209182019101610fac9190611032565b5b505050565b828054600181600116156101000203166002900490600052602060002090601f016020900481019282601f10610ff357805160ff1916838001178555611021565b82800160010185558215611021579182015b82811115611020578251825591602001919060010190611005565b5b50905061102e9190611032565b5090565b61105491905b80821115611050576000816000905550600101611038565b5090565b905600a165627a7a72305820688e43eaa430995f202d04ba647a2ddc728b97bb0760ea51032fc0bfcd5bca2f0029",
  "source": "pragma solidity ^0.4.21;\n\nimport './Ownable.sol';\n\n/**\n * @title HomeMember\n * @dev Manages members of a smart home\n */\ncontract HomeMember is Ownable {\n\n  struct Member {\n      string name;\n      uint index;\n  }\n\n  mapping(address => Member) public members;\n  address[] public memberIndex;\n\n  event LogNewMember(address indexed _memberAddress,\n                     uint _index, string _name);\n  event LogMemberUpdate(address indexed _memberAddress,\n                        uint _index, string _name);\n  event LogDeleteMember(address indexed _memberAddress, uint _index);\n  \n  /**\n   * @dev Throws if called by any account other than the home member.\n   */\n  modifier onlyHomeMember() {\n    require(isMember(msg.sender));\n    _;\n  }\n\n  /**\n   * @dev Checks if member is part of home network\n   */\n  function isMember(address _memberAddress)\n  public\n  constant\n  returns(bool _isIndeed)\n  {\n    if(memberIndex.length == 0) return false;\n    return (memberIndex[members[_memberAddress].index] == _memberAddress);\n  }\n\n  /**\n   * @dev Adds member to home network\n   */\n  function addMember(address _memberAddress, string _name)\n  public\n  onlyOwner\n  returns(uint _index)\n  {\n    require(!isMember(_memberAddress));\n    members[_memberAddress].index = memberIndex.push(_memberAddress) - 1;\n    members[_memberAddress].name = _name;\n    emit LogNewMember(_memberAddress, members[_memberAddress].index ,\n                      _name);\n    return memberIndex.length - 1;\n  }\n\n  /**\n   * @dev Removes member from the home network\n   */\n  function deleteMember(address _memberAddress)\n  public\n  onlyOwner\n  returns(uint _index)\n  {\n    require(isMember(_memberAddress));\n    uint rowToDelete = members[_memberAddress].index;\n    address keyToMove = memberIndex[memberIndex.length - 1];\n    memberIndex[rowToDelete] = keyToMove;\n    members[keyToMove].index = rowToDelete;\n    memberIndex.length--;\n    emit LogDeleteMember(\n        _memberAddress,\n        rowToDelete);\n    emit LogMemberUpdate(\n        keyToMove,\n        rowToDelete,\n        members[keyToMove].name);\n    return rowToDelete;\n  }\n\n  /**\n   * @dev Gets member info provied the member address\n   */\n  function getMember(address _memberAddress)\n  public\n  constant\n  returns(uint _index, string _name)\n  {\n    require(isMember(_memberAddress));\n    return(\n      members[_memberAddress].index,\n      members[_memberAddress].name);\n\n  }\n\n  /**\n   * @dev Get count of members connected to home network\n   */\n  function getMemberCount()\n  public\n  constant\n  returns(uint _count)\n  {\n    return memberIndex.length;\n  }\n  \n  /**\n   * @dev Get member information provided the member index\n   */\n  function getMemberAtIndex(uint _index)\n  public\n  constant\n  returns(address _memberAddress)\n  {\n    return memberIndex[_index];\n  }\n\n}",
  "sourcePath": "/media/ankit/Pandora's Box/torque/public-contracts/contracts/HomeMember.sol",
  "compiler": {
    "name": "solc",
    "version": "0.4.21+commit.dfe3193c.Emscripten.clang"
  },
  "schemaVersion": "2.0.0",
  "updatedAt": "2018-04-19T14:20:39.342Z"
}