{
  "contractName": "PublicDeviceStateManager",
  "abi": [
    {
      "constant": true,
      "inputs": [
        {
          "name": "_deviceAddress",
          "type": "address"
        }
      ],
      "name": "getDevice",
      "outputs": [
        {
          "name": "_index",
          "type": "uint256"
        },
        {
          "name": "_status",
          "type": "bool"
        },
        {
          "name": "_isRegulatable",
          "type": "bool"
        },
        {
          "name": "_name",
          "type": "string"
        }
      ],
      "payable": false,
      "stateMutability": "view",
      "type": "function"
    },
    {
      "constant": true,
      "inputs": [
        {
          "name": "_deviceAddress",
          "type": "address"
        }
      ],
      "name": "isDeviceRegulatable",
      "outputs": [
        {
          "name": "_isIndeed",
          "type": "bool"
        }
      ],
      "payable": false,
      "stateMutability": "view",
      "type": "function"
    },
    {
      "constant": false,
      "inputs": [
        {
          "name": "_deviceAddress",
          "type": "address"
        }
      ],
      "name": "turnOnDevice",
      "outputs": [
        {
          "name": "_success",
          "type": "bool"
        }
      ],
      "payable": false,
      "stateMutability": "nonpayable",
      "type": "function"
    },
    {
      "constant": true,
      "inputs": [],
      "name": "getDeviceCount",
      "outputs": [
        {
          "name": "_count",
          "type": "uint256"
        }
      ],
      "payable": false,
      "stateMutability": "view",
      "type": "function"
    },
    {
      "constant": false,
      "inputs": [
        {
          "name": "_deviceAddress",
          "type": "address"
        }
      ],
      "name": "turnOffDevice",
      "outputs": [
        {
          "name": "_success",
          "type": "bool"
        }
      ],
      "payable": false,
      "stateMutability": "nonpayable",
      "type": "function"
    },
    {
      "constant": true,
      "inputs": [
        {
          "name": "",
          "type": "uint256"
        }
      ],
      "name": "deviceIndex",
      "outputs": [
        {
          "name": "",
          "type": "address"
        }
      ],
      "payable": false,
      "stateMutability": "view",
      "type": "function"
    },
    {
      "constant": true,
      "inputs": [
        {
          "name": "_deviceAddress",
          "type": "address"
        }
      ],
      "name": "isDevice",
      "outputs": [
        {
          "name": "_isIndeed",
          "type": "bool"
        }
      ],
      "payable": false,
      "stateMutability": "view",
      "type": "function"
    },
    {
      "constant": false,
      "inputs": [
        {
          "name": "_deviceAddress",
          "type": "address"
        }
      ],
      "name": "deleteDevice",
      "outputs": [
        {
          "name": "_index",
          "type": "uint256"
        }
      ],
      "payable": false,
      "stateMutability": "nonpayable",
      "type": "function"
    },
    {
      "constant": false,
      "inputs": [
        {
          "name": "_deviceAddress",
          "type": "address"
        },
        {
          "name": "_status",
          "type": "bool"
        },
        {
          "name": "_isRegulatable",
          "type": "bool"
        },
        {
          "name": "_name",
          "type": "string"
        }
      ],
      "name": "addDevice",
      "outputs": [
        {
          "name": "_index",
          "type": "uint256"
        }
      ],
      "payable": false,
      "stateMutability": "nonpayable",
      "type": "function"
    },
    {
      "constant": true,
      "inputs": [],
      "name": "owner",
      "outputs": [
        {
          "name": "",
          "type": "address"
        }
      ],
      "payable": false,
      "stateMutability": "view",
      "type": "function"
    },
    {
      "constant": false,
      "inputs": [
        {
          "name": "_deviceAddress",
          "type": "address"
        },
        {
          "name": "_regulationValue",
          "type": "uint256"
        }
      ],
      "name": "regulateDevice",
      "outputs": [
        {
          "name": "_success",
          "type": "bool"
        }
      ],
      "payable": false,
      "stateMutability": "nonpayable",
      "type": "function"
    },
    {
      "constant": true,
      "inputs": [
        {
          "name": "",
          "type": "address"
        }
      ],
      "name": "devices",
      "outputs": [
        {
          "name": "status",
          "type": "bool"
        },
        {
          "name": "index",
          "type": "uint256"
        },
        {
          "name": "isRegulatable",
          "type": "bool"
        },
        {
          "name": "name",
          "type": "string"
        }
      ],
      "payable": false,
      "stateMutability": "view",
      "type": "function"
    },
    {
      "constant": false,
      "inputs": [
        {
          "name": "_newOwner",
          "type": "address"
        }
      ],
      "name": "transferOwnership",
      "outputs": [],
      "payable": false,
      "stateMutability": "nonpayable",
      "type": "function"
    },
    {
      "constant": true,
      "inputs": [
        {
          "name": "_index",
          "type": "uint256"
        }
      ],
      "name": "getDeviceAtIndex",
      "outputs": [
        {
          "name": "_deviceAddress",
          "type": "address"
        }
      ],
      "payable": false,
      "stateMutability": "view",
      "type": "function"
    },
    {
      "inputs": [
        {
          "name": "_homeMemberContractAddress",
          "type": "address"
        }
      ],
      "payable": false,
      "stateMutability": "nonpayable",
      "type": "constructor"
    },
    {
      "anonymous": false,
      "inputs": [
        {
          "indexed": true,
          "name": "_deviceAddress",
          "type": "address"
        },
        {
          "indexed": false,
          "name": "_changedStatus",
          "type": "bool"
        }
      ],
      "name": "RequestDeviceStateChange",
      "type": "event"
    },
    {
      "anonymous": false,
      "inputs": [
        {
          "indexed": true,
          "name": "_deviceAddress",
          "type": "address"
        },
        {
          "indexed": false,
          "name": "_regulationValue",
          "type": "uint256"
        }
      ],
      "name": "RequestDeviceRegulation",
      "type": "event"
    },
    {
      "anonymous": false,
      "inputs": [
        {
          "indexed": true,
          "name": "_deviceAddress",
          "type": "address"
        },
        {
          "indexed": false,
          "name": "_index",
          "type": "uint256"
        },
        {
          "indexed": false,
          "name": "_status",
          "type": "bool"
        },
        {
          "indexed": false,
          "name": "_isRegulatable",
          "type": "bool"
        },
        {
          "indexed": false,
          "name": "_name",
          "type": "string"
        }
      ],
      "name": "LogNewDevice",
      "type": "event"
    },
    {
      "anonymous": false,
      "inputs": [
        {
          "indexed": true,
          "name": "_deviceAddress",
          "type": "address"
        },
        {
          "indexed": false,
          "name": "_index",
          "type": "uint256"
        },
        {
          "indexed": false,
          "name": "status",
          "type": "bool"
        }
      ],
      "name": "LogDeviceUpdate",
      "type": "event"
    },
    {
      "anonymous": false,
      "inputs": [
        {
          "indexed": true,
          "name": "_deviceAddress",
          "type": "address"
        },
        {
          "indexed": false,
          "name": "_index",
          "type": "uint256"
        }
      ],
      "name": "LogDeviceOn",
      "type": "event"
    },
    {
      "anonymous": false,
      "inputs": [
        {
          "indexed": true,
          "name": "_deviceAddress",
          "type": "address"
        },
        {
          "indexed": false,
          "name": "_index",
          "type": "uint256"
        }
      ],
      "name": "LogDeviceOff",
      "type": "event"
    },
    {
      "anonymous": false,
      "inputs": [
        {
          "indexed": true,
          "name": "_deviceAddress",
          "type": "address"
        },
        {
          "indexed": false,
          "name": "_index",
          "type": "uint256"
        }
      ],
      "name": "LogDeleteDevice",
      "type": "event"
    },
    {
      "anonymous": false,
      "inputs": [
        {
          "indexed": true,
          "name": "_deviceAddress",
          "type": "address"
        },
        {
          "indexed": false,
          "name": "_regulationValue",
          "type": "uint256"
        }
      ],
      "name": "DeviceRegulated",
      "type": "event"
    },
    {
      "anonymous": false,
      "inputs": [
        {
          "indexed": true,
          "name": "_previousOwner",
          "type": "address"
        },
        {
          "indexed": true,
          "name": "_newOwner",
          "type": "address"
        }
      ],
      "name": "OwnershipTransferred",
      "type": "event"
    },
    {
      "constant": false,
      "inputs": [
        {
          "name": "_deviceAddress",
          "type": "address"
        },
        {
          "name": "_changedStatus",
          "type": "bool"
        }
      ],
      "name": "requestDeviceStateChange",
      "outputs": [
        {
          "name": "_success",
          "type": "bool"
        }
      ],
      "payable": false,
      "stateMutability": "nonpayable",
      "type": "function"
    },
    {
      "constant": false,
      "inputs": [
        {
          "name": "_deviceAddress",
          "type": "address"
        },
        {
          "name": "_regulationValue",
          "type": "uint256"
        }
      ],
      "name": "requestDeviceRegulation",
      "outputs": [
        {
          "name": "_success",
          "type": "bool"
        }
      ],
      "payable": false,
      "stateMutability": "nonpayable",
      "type": "function"
    }
  ],
  "bytecode": "0x6060604052341561000f57600080fd5b604051602080611d3d83398101604052808051906020019091905050336000806101000a81548173ffffffffffffffffffffffffffffffffffffffff021916908373ffffffffffffffffffffffffffffffffffffffff16021790555080600360006101000a81548173ffffffffffffffffffffffffffffffffffffffff021916908373ffffffffffffffffffffffffffffffffffffffff16021790555050611c81806100bc6000396000f3006060604052600436106100e5576000357c0100000000000000000000000000000000000000000000000000000000900463ffffffff168062d55318146100ea5780630a0fec59146101b95780632d6f79171461020a57806337a0701a1461025b57806337e37c63146102845780635e64a619146102d55780636dc7a35f1461033857806375d29c5a146103895780638748e711146103d65780638da5cb5b1461047c5780639551d139146104d15780639629c55b1461052d578063a14492da14610587578063e7b4cac6146105e1578063f2fde38b146106b0578063f3cb9dba146106e9575b600080fd5b34156100f557600080fd5b610121600480803573ffffffffffffffffffffffffffffffffffffffff1690602001909190505061074c565b60405180858152602001841515151581526020018315151515815260200180602001828103825283818151815260200191508051906020019080838360005b8381101561017b578082015181840152602081019050610160565b50505050905090810190601f1680156101a85780820380516001836020036101000a031916815260200191505b509550505050505060405180910390f35b34156101c457600080fd5b6101f0600480803573ffffffffffffffffffffffffffffffffffffffff1690602001909190505061093d565b604051808215151515815260200191505060405180910390f35b341561021557600080fd5b610241600480803573ffffffffffffffffffffffffffffffffffffffff16906020019091905050610a69565b604051808215151515815260200191505060405180910390f35b341561026657600080fd5b61026e610bcd565b6040518082815260200191505060405180910390f35b341561028f57600080fd5b6102bb600480803573ffffffffffffffffffffffffffffffffffffffff16906020019091905050610bda565b604051808215151515815260200191505060405180910390f35b34156102e057600080fd5b6102f66004808035906020019091905050610d3f565b604051808273ffffffffffffffffffffffffffffffffffffffff1673ffffffffffffffffffffffffffffffffffffffff16815260200191505060405180910390f35b341561034357600080fd5b61036f600480803573ffffffffffffffffffffffffffffffffffffffff16906020019091905050610d7e565b604051808215151515815260200191505060405180910390f35b341561039457600080fd5b6103c0600480803573ffffffffffffffffffffffffffffffffffffffff16906020019091905050610e49565b6040518082815260200191505060405180910390f35b34156103e157600080fd5b610466600480803573ffffffffffffffffffffffffffffffffffffffff169060200190919080351515906020019091908035151590602001909190803590602001908201803590602001908080601f016020809104026020016040519081016040528093929190818152602001838380828437820191505050505050919050506110fe565b6040518082815260200191505060405180910390f35b341561048757600080fd5b61048f61144f565b604051808273ffffffffffffffffffffffffffffffffffffffff1673ffffffffffffffffffffffffffffffffffffffff16815260200191505060405180910390f35b34156104dc57600080fd5b610513600480803573ffffffffffffffffffffffffffffffffffffffff169060200190919080351515906020019091905050611474565b604051808215151515815260200191505060405180910390f35b341561053857600080fd5b61056d600480803573ffffffffffffffffffffffffffffffffffffffff16906020019091908035906020019091905050611651565b604051808215151515815260200191505060405180910390f35b341561059257600080fd5b6105c7600480803573ffffffffffffffffffffffffffffffffffffffff16906020019091908035906020019091905050611732565b604051808215151515815260200191505060405180910390f35b34156105ec57600080fd5b610618600480803573ffffffffffffffffffffffffffffffffffffffff169060200190919050506118c9565b60405180851515151581526020018481526020018315151515815260200180602001828103825283818151815260200191508051906020019080838360005b83811015610672578082015181840152602081019050610657565b50505050905090810190601f16801561069f5780820380516001836020036101000a031916815260200191505b509550505050505060405180910390f35b34156106bb57600080fd5b6106e7600480803573ffffffffffffffffffffffffffffffffffffffff169060200190919050506119ab565b005b34156106f457600080fd5b61070a6004808035906020019091905050611b00565b604051808273ffffffffffffffffffffffffffffffffffffffff1673ffffffffffffffffffffffffffffffffffffffff16815260200191505060405180910390f35b6000806000610759611b44565b61076285610d7e565b151561076d57600080fd5b600160008673ffffffffffffffffffffffffffffffffffffffff1673ffffffffffffffffffffffffffffffffffffffff16815260200190815260200160002060010154600160008773ffffffffffffffffffffffffffffffffffffffff1673ffffffffffffffffffffffffffffffffffffffff16815260200190815260200160002060000160009054906101000a900460ff16600160008873ffffffffffffffffffffffffffffffffffffffff1673ffffffffffffffffffffffffffffffffffffffff16815260200190815260200160002060020160009054906101000a900460ff16600160008973ffffffffffffffffffffffffffffffffffffffff1673ffffffffffffffffffffffffffffffffffffffff168152602001908152602001600020600301808054600181600116156101000203166002900480601f0160208091040260200160405190810160405280929190818152602001828054600181600116156101000203166002900480156109275780601f106108fc57610100808354040283529160200191610927565b820191906000526020600020905b81548152906001019060200180831161090a57829003601f168201915b5050505050905093509350935093509193509193565b600061094882610d7e565b15156109575760009050610a64565b8173ffffffffffffffffffffffffffffffffffffffff166002600160008573ffffffffffffffffffffffffffffffffffffffff1673ffffffffffffffffffffffffffffffffffffffff168152602001908152602001600020600101548154811015156109bf57fe5b906000526020600020900160009054906101000a900473ffffffffffffffffffffffffffffffffffffffff1673ffffffffffffffffffffffffffffffffffffffff16148015610a61575060011515600160008473ffffffffffffffffffffffffffffffffffffffff1673ffffffffffffffffffffffffffffffffffffffff16815260200190815260200160002060020160009054906101000a900460ff161515145b90505b919050565b60008060009054906101000a900473ffffffffffffffffffffffffffffffffffffffff1673ffffffffffffffffffffffffffffffffffffffff163373ffffffffffffffffffffffffffffffffffffffff16141515610ac657600080fd5b610acf82610d7e565b1515610ada57600080fd5b60018060008473ffffffffffffffffffffffffffffffffffffffff1673ffffffffffffffffffffffffffffffffffffffff16815260200190815260200160002060000160006101000a81548160ff0219169083151502179055508173ffffffffffffffffffffffffffffffffffffffff167f45a2bdc195519752feac20d3e4012d6a697e96f66d93e914150af00c0287ef62600160008573ffffffffffffffffffffffffffffffffffffffff1673ffffffffffffffffffffffffffffffffffffffff168152602001908152602001600020600101546040518082815260200191505060405180910390a260019050919050565b6000600280549050905090565b60008060009054906101000a900473ffffffffffffffffffffffffffffffffffffffff1673ffffffffffffffffffffffffffffffffffffffff163373ffffffffffffffffffffffffffffffffffffffff16141515610c3757600080fd5b610c4082610d7e565b1515610c4b57600080fd5b6000600160008473ffffffffffffffffffffffffffffffffffffffff1673ffffffffffffffffffffffffffffffffffffffff16815260200190815260200160002060000160006101000a81548160ff0219169083151502179055508173ffffffffffffffffffffffffffffffffffffffff167f02a8dfc6721f79552a7e09b2840dd3e139853f19129a78783c81063c2394ef5c600160008573ffffffffffffffffffffffffffffffffffffffff1673ffffffffffffffffffffffffffffffffffffffff168152602001908152602001600020600101546040518082815260200191505060405180910390a260019050919050565b600281815481101515610d4e57fe5b90600052602060002090016000915054906101000a900473ffffffffffffffffffffffffffffffffffffffff1681565b6000806002805490501415610d965760009050610e44565b8173ffffffffffffffffffffffffffffffffffffffff166002600160008573ffffffffffffffffffffffffffffffffffffffff1673ffffffffffffffffffffffffffffffffffffffff16815260200190815260200160002060010154815481101515610dfe57fe5b906000526020600020900160009054906101000a900473ffffffffffffffffffffffffffffffffffffffff1673ffffffffffffffffffffffffffffffffffffffff161490505b919050565b60008060008060009054906101000a900473ffffffffffffffffffffffffffffffffffffffff1673ffffffffffffffffffffffffffffffffffffffff163373ffffffffffffffffffffffffffffffffffffffff16141515610ea957600080fd5b610eb284610d7e565b1515610ebd57600080fd5b600160008573ffffffffffffffffffffffffffffffffffffffff1673ffffffffffffffffffffffffffffffffffffffff1681526020019081526020016000206001015491506002600160028054905003815481101515610f1957fe5b906000526020600020900160009054906101000a900473ffffffffffffffffffffffffffffffffffffffff16905080600283815481101515610f5757fe5b906000526020600020900160006101000a81548173ffffffffffffffffffffffffffffffffffffffff021916908373ffffffffffffffffffffffffffffffffffffffff16021790555081600160008373ffffffffffffffffffffffffffffffffffffffff1673ffffffffffffffffffffffffffffffffffffffff168152602001908152602001600020600101819055506002805480919060019003610ffc9190611b58565b508373ffffffffffffffffffffffffffffffffffffffff167faff514f0cea140f8ef4ea2e767bf9fcbf3406fdeb18d2977301cfa3afce954c6836040518082815260200191505060405180910390a28073ffffffffffffffffffffffffffffffffffffffff167f3261076394605e4137bae692a7cccd256e934a142b8ed2b196e4c2e75738c70783600160008573ffffffffffffffffffffffffffffffffffffffff1673ffffffffffffffffffffffffffffffffffffffff16815260200190815260200160002060000160009054906101000a900460ff1660405180838152602001821515151581526020019250505060405180910390a28192505050919050565b60008060009054906101000a900473ffffffffffffffffffffffffffffffffffffffff1673ffffffffffffffffffffffffffffffffffffffff163373ffffffffffffffffffffffffffffffffffffffff1614151561115b57600080fd5b61116485610d7e565b15151561117057600080fd5b6000600160008773ffffffffffffffffffffffffffffffffffffffff1673ffffffffffffffffffffffffffffffffffffffff16815260200190815260200160002060000160006101000a81548160ff0219169083151502179055506001600280548060010182816111e19190611b84565b9160005260206000209001600088909190916101000a81548173ffffffffffffffffffffffffffffffffffffffff021916908373ffffffffffffffffffffffffffffffffffffffff16021790555003600160008773ffffffffffffffffffffffffffffffffffffffff1673ffffffffffffffffffffffffffffffffffffffff1681526020019081526020016000206001018190555081600160008773ffffffffffffffffffffffffffffffffffffffff1673ffffffffffffffffffffffffffffffffffffffff16815260200190815260200160002060030190805190602001906112cc929190611bb0565b5082600160008773ffffffffffffffffffffffffffffffffffffffff1673ffffffffffffffffffffffffffffffffffffffff16815260200190815260200160002060020160006101000a81548160ff0219169083151502179055508473ffffffffffffffffffffffffffffffffffffffff167ffc8c49c2591e8da0002f4dd5cbc8dfce2bc831b9f872d7e9ac40596ffa3ce59a600160008873ffffffffffffffffffffffffffffffffffffffff1673ffffffffffffffffffffffffffffffffffffffff1681526020019081526020016000206001015486868660405180858152602001841515151581526020018315151515815260200180602001828103825283818151815260200191508051906020019080838360005b838110156113ff5780820151818401526020810190506113e4565b50505050905090810190601f16801561142c5780820380516001836020036101000a031916815260200191505b509550505050505060405180910390a26001600280549050039050949350505050565b6000809054906101000a900473ffffffffffffffffffffffffffffffffffffffff1681565b6000600360009054906101000a900473ffffffffffffffffffffffffffffffffffffffff1673ffffffffffffffffffffffffffffffffffffffff1660405180807f69734d656d626572286164647265737329000000000000000000000000000000815250601101905060405180910390207c01000000000000000000000000000000000000000000000000000000009004336040518263ffffffff167c0100000000000000000000000000000000000000000000000000000000028152600401808273ffffffffffffffffffffffffffffffffffffffff1673ffffffffffffffffffffffffffffffffffffffff1681526020019150506000604051808303816000875af192505050151561158757600080fd5b61159083610d7e565b151561159b57600080fd5b81600160008573ffffffffffffffffffffffffffffffffffffffff1673ffffffffffffffffffffffffffffffffffffffff16815260200190815260200160002060000160006101000a81548160ff0219169083151502179055508273ffffffffffffffffffffffffffffffffffffffff167fb9b045cab7f357569de85cf2372da986fde16008cb4a77b43dcce54878e2652183604051808215151515815260200191505060405180910390a26001905092915050565b60008060009054906101000a900473ffffffffffffffffffffffffffffffffffffffff1673ffffffffffffffffffffffffffffffffffffffff163373ffffffffffffffffffffffffffffffffffffffff161415156116ae57600080fd5b6116b78361093d565b80156116cf57506000821180156116ce5750600b82105b5b15156116da57600080fd5b8273ffffffffffffffffffffffffffffffffffffffff167f02c16fc0786a50ce1107eabf54be90d07d76fdf1f1e782ea6fb5083fe7bed0ba836040518082815260200191505060405180910390a26001905092915050565b6000600360009054906101000a900473ffffffffffffffffffffffffffffffffffffffff1673ffffffffffffffffffffffffffffffffffffffff1660405180807f69734d656d626572286164647265737329000000000000000000000000000000815250601101905060405180910390207c01000000000000000000000000000000000000000000000000000000009004336040518263ffffffff167c0100000000000000000000000000000000000000000000000000000000028152600401808273ffffffffffffffffffffffffffffffffffffffff1673ffffffffffffffffffffffffffffffffffffffff1681526020019150506000604051808303816000875af192505050151561184557600080fd5b61184e8361093d565b801561186657506000821180156118655750600b82105b5b151561187157600080fd5b8273ffffffffffffffffffffffffffffffffffffffff167f8a639c4e5b8c8c6ebe039446e95efb184d21e962449501af304d3fad253caed5836040518082815260200191505060405180910390a26001905092915050565b60016020528060005260406000206000915090508060000160009054906101000a900460ff16908060010154908060020160009054906101000a900460ff1690806003018054600181600116156101000203166002900480601f0160208091040260200160405190810160405280929190818152602001828054600181600116156101000203166002900480156119a15780601f10611976576101008083540402835291602001916119a1565b820191906000526020600020905b81548152906001019060200180831161198457829003601f168201915b5050505050905084565b6000809054906101000a900473ffffffffffffffffffffffffffffffffffffffff1673ffffffffffffffffffffffffffffffffffffffff163373ffffffffffffffffffffffffffffffffffffffff16141515611a0657600080fd5b600073ffffffffffffffffffffffffffffffffffffffff168173ffffffffffffffffffffffffffffffffffffffff1614151515611a4257600080fd5b8073ffffffffffffffffffffffffffffffffffffffff166000809054906101000a900473ffffffffffffffffffffffffffffffffffffffff1673ffffffffffffffffffffffffffffffffffffffff167f8be0079c531659141344cd1fd0a4f28419497f9722a3daafe3b4186f6b6457e060405160405180910390a3806000806101000a81548173ffffffffffffffffffffffffffffffffffffffff021916908373ffffffffffffffffffffffffffffffffffffffff16021790555050565b6000600282815481101515611b1157fe5b906000526020600020900160009054906101000a900473ffffffffffffffffffffffffffffffffffffffff169050919050565b602060405190810160405280600081525090565b815481835581811511611b7f57818360005260206000209182019101611b7e9190611c30565b5b505050565b815481835581811511611bab57818360005260206000209182019101611baa9190611c30565b5b505050565b828054600181600116156101000203166002900490600052602060002090601f016020900481019282601f10611bf157805160ff1916838001178555611c1f565b82800160010185558215611c1f579182015b82811115611c1e578251825591602001919060010190611c03565b5b509050611c2c9190611c30565b5090565b611c5291905b80821115611c4e576000816000905550600101611c36565b5090565b905600a165627a7a7230582064f41eed6712bcd0126650278f9829a43af6c98493c19c8233cc926ac99a9c620029",
  "source": "pragma solidity ^0.4.21;\n\nimport './DeviceStateManager.sol';\n\n/**\n * @title PublicDeviceStateManager\n * @dev Manages devices connected to home network\n */\ncontract PublicDeviceStateManager is DeviceStateManager {\n\n  // The address of the homemember contract\n  address homeMemberContractAddress;\n\n  event RequestDeviceStateChange(address indexed _deviceAddress,\n                                 bool _changedStatus);\n  event RequestDeviceRegulation(address indexed _deviceAddress,\n                                uint _regulationValue);\n\n  function PublicDeviceStateManager(address _homeMemberContractAddress)\n   public\n   {\n      homeMemberContractAddress = _homeMemberContractAddress;\n   }\n\n  /**\n   * @dev Throws if called by any account other than the home member.\n   */\n  modifier onlyHomeMember() {\n  require(homeMemberContractAddress\n         .call(bytes4(keccak256(\"isMember(address)\")),\n               msg.sender));\n    _;\n  }\n\n  /**\n   * @dev Change device state\n   */\n  function  requestDeviceStateChange(address _deviceAddress,\n                                     bool _changedStatus)\n  onlyHomeMember\n  public\n  returns(bool _success)\n  {\n    require(isDevice(_deviceAddress));\n    devices[_deviceAddress].status = _changedStatus;\n    emit RequestDeviceStateChange(\n      _deviceAddress,\n      _changedStatus);\n    return true;\n  }\n\n  /**\n   * @dev Regulate Device Speed\n   */\n  function  requestDeviceRegulation(address _deviceAddress,\n                                    uint _regulationValue)\n  onlyHomeMember\n  public\n  returns(bool _success)\n  {\n    require(isDeviceRegulatable(_deviceAddress) &&\n           (_regulationValue>0&&_regulationValue<11));\n    emit RequestDeviceRegulation(\n      _deviceAddress,\n      _regulationValue);\n    return true;\n  }\n  \n}\n",
  "sourcePath": "/media/ankit/Pandora's Box/torque/public-contracts/contracts/PublicDeviceStateManager.sol",
  "compiler": {
    "name": "solc",
    "version": "0.4.21+commit.dfe3193c.Emscripten.clang"
  },
  "schemaVersion": "2.0.0",
  "updatedAt": "2018-04-19T14:20:39.347Z"
}